{
  "_format": "hh-sol-artifact-1",
  "contractName": "POAPDapp",
  "sourceName": "contracts/POAP.sol",
  "abi": [
    {
      "inputs": [],
      "stateMutability": "nonpayable",
      "type": "constructor"
    },
    {
      "anonymous": false,
      "inputs": [
        {
          "indexed": false,
          "internalType": "string",
          "name": "newCode",
          "type": "string"
        }
      ],
      "name": "CodeUpdated",
      "type": "event"
    },
    {
      "anonymous": false,
      "inputs": [],
      "name": "MintingStopped",
      "type": "event"
    },
    {
      "anonymous": false,
      "inputs": [
        {
          "indexed": false,
          "internalType": "address",
          "name": "newContract",
          "type": "address"
        }
      ],
      "name": "NFTContractUpdated",
      "type": "event"
    },
    {
      "anonymous": false,
      "inputs": [
        {
          "indexed": true,
          "internalType": "address",
          "name": "previousOwner",
          "type": "address"
        },
        {
          "indexed": true,
          "internalType": "address",
          "name": "newOwner",
          "type": "address"
        }
      ],
      "name": "OwnershipTransferred",
      "type": "event"
    },
    {
      "inputs": [
        {
          "internalType": "address",
          "name": "_admin",
          "type": "address"
        }
      ],
      "name": "addAdmin",
      "outputs": [],
      "stateMutability": "nonpayable",
      "type": "function"
    },
    {
      "inputs": [],
      "name": "admin",
      "outputs": [
        {
          "internalType": "address",
          "name": "",
          "type": "address"
        }
      ],
      "stateMutability": "view",
      "type": "function"
    },
    {
      "inputs": [],
      "name": "getCode",
      "outputs": [
        {
          "internalType": "string",
          "name": "",
          "type": "string"
        }
      ],
      "stateMutability": "view",
      "type": "function"
    },
    {
      "inputs": [
        {
          "internalType": "string",
          "name": "code",
          "type": "string"
        }
      ],
      "name": "mint",
      "outputs": [],
      "stateMutability": "nonpayable",
      "type": "function"
    },
    {
      "inputs": [],
      "name": "owner",
      "outputs": [
        {
          "internalType": "address",
          "name": "",
          "type": "address"
        }
      ],
      "stateMutability": "view",
      "type": "function"
    },
    {
      "inputs": [],
      "name": "poapNftContract",
      "outputs": [
        {
          "internalType": "address",
          "name": "",
          "type": "address"
        }
      ],
      "stateMutability": "view",
      "type": "function"
    },
    {
      "inputs": [
        {
          "internalType": "address",
          "name": "_admin",
          "type": "address"
        }
      ],
      "name": "removeAdmin",
      "outputs": [],
      "stateMutability": "nonpayable",
      "type": "function"
    },
    {
      "inputs": [],
      "name": "renounceOwnership",
      "outputs": [],
      "stateMutability": "nonpayable",
      "type": "function"
    },
    {
      "inputs": [],
      "name": "stopMinting",
      "outputs": [],
      "stateMutability": "nonpayable",
      "type": "function"
    },
    {
      "inputs": [
        {
          "internalType": "address",
          "name": "newOwner",
          "type": "address"
        }
      ],
      "name": "transferOwnership",
      "outputs": [],
      "stateMutability": "nonpayable",
      "type": "function"
    },
    {
      "inputs": [
        {
          "internalType": "string",
          "name": "newCode",
          "type": "string"
        }
      ],
      "name": "updateCode",
      "outputs": [],
      "stateMutability": "nonpayable",
      "type": "function"
    },
    {
      "inputs": [
        {
          "internalType": "address",
          "name": "newContract",
          "type": "address"
        }
      ],
      "name": "updateNFTContract",
      "outputs": [],
      "stateMutability": "nonpayable",
      "type": "function"
    }
  ],
  "bytecode": "0x6080806040523460735760008054336001600160a01b0319821681178355916001600160a01b03909116907f8be0079c531659141344cd1fd0a4f28419497f9722a3daafe3b4186f6b6457e09080a33360005260046020526040600020600160ff19825416179055610b3e90816100798239f35b600080fdfe6080604052600436101561001257600080fd5b6000803560e01c80631785f53c14610946578063387ecc371461091d5780633e3e0b12146108bd5780637048027514610875578063715018a61461081b57806378627f2b1461079d5780638da5cb5b14610776578063d0b653d11461058d578063d85d3d27146102b0578063ea8796341461019a578063f2fde38b146100cc5763f851a440146100a157600080fd5b346100c957806003193601126100c9576001546040516001600160a01b039091168152602090f35b80fd5b50346100c95760203660031901126100c9576004356001600160a01b03811690819003610196576100fb610a90565b80156101425781546001600160a01b03198116821783556001600160a01b03167f8be0079c531659141344cd1fd0a4f28419497f9722a3daafe3b4186f6b6457e08380a380f35b60405162461bcd60e51b815260206004820152602660248201527f4f776e61626c653a206e6577206f776e657220697320746865207a65726f206160448201526564647265737360d01b6064820152608490fd5b5080fd5b50346100c957806003193601126100c95733815260046020526101c360ff6040832054166109e1565b60405160025481836101d483610a1e565b80835292600181169081156102915750600114610245575b6101f892500382610a58565b604051809260208252825192836020840152815b84811061022d57505091604092838284010152601f80199101168101030190f35b6020828201810151604088840101528694500161020c565b5060028452908390600080516020610ae98339815191525b8183106102755750509060206101f8928201016101ec565b602091935080600191548385880101520191019091839261025d565b602092506101f894915060ff191682840152151560051b8201016101ec565b50346100c9576102bf3661098b565b6003546001600160a01b031691908215610552576102fa6020604051838194838301968737810187838201520301601f198101835282610a58565b519020604051602081019084816002549161031483610a1e565b926001811690811561053757506001146104ee575b61033c925003601f198101835282610a58565b519020036104ba576005546201518081018091116104a6574211610461576040516370a0823160e01b8152336004820152602081602481855afa908115610456578391610420575b506103db578082913b156103d8578180916024604051809581936335313c2160e11b83523360048401525af180156103cb576103bd5780f35b6103c691610a58565b388180f35b50604051903d90823e3d90fd5b50fd5b60405162461bcd60e51b815260206004820152601a60248201527f416464726573732068617320616c7265616479206d696e7465640000000000006044820152606490fd5b90506020813d60201161044e575b8161043b60209383610a58565b8101031261044a575138610384565b8280fd5b3d915061042e565b6040513d85823e3d90fd5b60405162461bcd60e51b815260206004820152601a60248201527f4d696e74696e6720706572696f642068617320657870697265640000000000006044820152606490fd5b634e487b7160e01b83526011600452602483fd5b60405162461bcd60e51b815260206004820152600c60248201526b496e76616c696420636f646560a01b6044820152606490fd5b5050600286528186600080516020610ae98339815191525b83821061051d575050602061033c92820101610329565b602091925080600191548385880101520191018391610506565b60ff191686525061033c928015150282016020019050610329565b60405162461bcd60e51b8152602060048201526013602482015272135a5b9d1a5b99c81a5cc8191a5cd8589b1959606a1b6044820152606490fd5b50346100c95761059c3661098b565b9033835260046020526105b560ff6040852054166109e1565b67ffffffffffffffff8211610762576105cf600254610a1e565b601f81116106f7575b5082601f83116001146106635782917fd95b3cfd7677255c173fdd23d0e6ca7c63db33c20025390cdefcc88951144046936040928691610658575b508360011b906000198560031b1c1916176002555b4260055582825193849260208452816020850152848401378181018301869052601f01601f19168101030190a180f35b905081013538610613565b60028452600080516020610ae983398151915290601f198416855b8181106106df5750918493917fd95b3cfd7677255c173fdd23d0e6ca7c63db33c20025390cdefcc8895114404695604094106106c5575b5050600183811b01600255610628565b820135600019600386901b60f8161c1916905538806106b5565b9192602060018192868801358155019401920161067e565b60028452601f830160051c600080516020610ae983398151915201906020841061074c575b601f0160051c600080516020610ae983398151915201905b81811061074157506105d8565b848155600101610734565b600080516020610ae9833981519152915061071c565b634e487b7160e01b83526041600452602483fd5b50346100c957806003193601126100c957546040516001600160a01b039091168152602090f35b50346100c95760203660031901126100c9576004356001600160a01b038116908190036101965760207ff2610996d245d9b77e4ff84c2174eea0b76fb44c422218404f66e28816d78fb991338452600482526107ff60ff6040862054166109e1565b600380546001600160a01b03191682179055604051908152a180f35b50346100c957806003193601126100c957610834610a90565b80546001600160a01b03198116825581906001600160a01b03167f8be0079c531659141344cd1fd0a4f28419497f9722a3daafe3b4186f6b6457e08280a380f35b50346100c95760203660031901126100c9576004356001600160a01b03811690819003610196576108a4610a90565b8152600460205260408120805460ff1916600117905580f35b50346100c957806003193601126100c95733815260046020526108e660ff6040832054166109e1565b600380546001600160a01b03191690557f6295e5261d0e74d3e3bffffc52975d8ed333ad3846118f5d02f0bfe5fe88b56c8180a180f35b50346100c957806003193601126100c9576003546040516001600160a01b039091168152602090f35b50346100c95760203660031901126100c9576004356001600160a01b0381169081900361019657610975610a90565b8152600460205260408120805460ff1916905580f35b9060206003198301126109dc5760043567ffffffffffffffff81116109dc57826023820112156109dc5780600401359267ffffffffffffffff84116109dc57602484830101116109dc576024019190565b600080fd5b156109e857565b60405162461bcd60e51b815260206004820152600e60248201526d139bdd08185d5d1a1bdc9a5e995960921b6044820152606490fd5b90600182811c92168015610a4e575b6020831014610a3857565b634e487b7160e01b600052602260045260246000fd5b91607f1691610a2d565b90601f8019910116810190811067ffffffffffffffff821117610a7a57604052565b634e487b7160e01b600052604160045260246000fd5b6000546001600160a01b03163303610aa457565b606460405162461bcd60e51b815260206004820152602060248201527f4f776e61626c653a2063616c6c6572206973206e6f7420746865206f776e65726044820152fdfe405787fa12a823e0f2b7631cc41b3ba8828b3321ca811111fa75cd3aa3bb5acea2646970667358221220053d97d752b7f4cd013d68248bc7e66b84c0329655e5e3f8f5c724b002403ca464736f6c634300081c0033",
  "linkReferences": {},
  "deployedLinkReferences": {}
}